:1000000000308A00792800002F1541264529542107
:100010005427AA1700002330840083130008031913
:100020001E280230F800F701F70B1428F80B1328EC
:100030009730F700F70B1A28800B112808000B08DF
:10004000A3008B13831603178C170C1400000000F9
:1000500083120313A31B8B1703170C087F39031993
:1000600075280313A30003170D080313A400031737
:100070000F080313A50023080C1E3C289900240830
:1000800003178D000313250803178F0003130B08B4
:10009000A6008B13831603178C170C1400000000A6
:1000A00083120313A61B8B1703170C0D0E0D7F393C
:1000B000031975280313A30003170D080313A400E5
:1000C00003170F080313A50023080C1E65289900C9
:1000D000240803178D000313250803178F008D0ACA
:1000E00003198F0A03131F28031703138A110A1217
:1000F000BE2803081F398300713083168F009001DA
:100100000F0803178715A0300313990001309A00D8
:10011000A6309800903083129800FF30A000A20112
:10012000A101831603170908C039890003131F12A0
:100130009F1200300317880083128701880189010C
:1001400083130130831603138600803087008312E7
:10015000A000831606148312061CC728FA30A300D9
:100160000B20A01220088316870083128716043004
:1001700003178D0000308F0003131F280430A300E5
:100180000B20A01220088316870083128712A9284B
:0201900063000A
:04400E00E52FFF3F5C
:00000001FF
;PIC16F886
;CRC=86F0  CREATED="26-sep.-17 15:55"
