:1000000003308A00372B0000C432F634E332A037C5
:100010006B050D004937693A2029E530E434EE33A9
:100020008A060001C430F430A01EA012CC2A8A0631
:100030000000C3376E3B31103D102518AE18661016
:10004000563263050D00C3376E3B32103D10251844
:10005000AE186610563263050D000B08AF008B1307
:10006000831603178C170C1400000000831203136F
:10007000AF1B8B1703170C087F3903198328031351
:10008000AF0003170D080313B00003170F08031385
:10009000B1002F080C1E4A289900300803178D0064
:1000A0000313310803178F0003130B08B2008B13DF
:1000B000831603178C170C1400000000831203131F
:1000C000B21B8B1703170C0D0E0D7F3903198328F4
:1000D0000313AF0003170D080313B00003170F0835
:1000E0000313B1002F080C1E732899003008031762
:1000F0008D000313310803178F008D0A03198F0A2F
:1001000003132D28031703130800303084008313D2
:100110000008031999280130F800F701F70B8E2821
:10012000F80B8D284A30F700F70B94289728800B9E
:100130008B288A110A128A2B94138C112F08930092
:100140000230941BAA288C1DA32800308316111B93
:1001500001308312F8008A110A12942B14138316AB
:1001600091159119B12877189112771C91161116D3
:10017000111AB82883121308F80008000B08B00001
:100180008B13831603178C170C14000000008312C6
:100190000313B01B8B170318F62803170C087F39BD
:1001A0000313B00003170D080313B10003170F0862
:1001B0000313B20030080C1EDB2899003108031726
:1001C0008D000313320803178F0003130B08B300CD
:1001D0008B13831603178C170C1400000000831276
:1001E0000313B31B8B17AF0BF628162903170C0D3F
:1001F0000E0D7F390313B00003170D080313B10070
:1002000003170F080313B20030080C1E05299900CC
:10021000310803178D000313320803178F008D0A6E
:1002200003198F0A03100313AF0BBE280800B70190
:100230000408B6003710831B3714300EF038B200B4
:10024000B207E23EB300323EB50030080F39B307C3
:10025000B307B507E93EB400B407B4072F0E0F3952
:10026000B407B507B40DB50DB509B50D2F080F3995
:10027000B507B20D0730B1000A30B507B403031C4F
:100280003D29B407B303031C4129B307B203031C80
:100290004529B207B103031C492931308400831377
:1002A0000730360536138407353004020319361734
:1002B0000008F700031D6429361B6429361A6C29CF
:1002C000B619642920306729B61536123030F70781
:1002D00077080C1E69299900840A361F54298A114F
:1002E0000A12BB2B8E30F7003008F8002F08F900F7
:1002F000FA01F808031D86297908F800F901083089
:10030000F702F808031D8629F7018E290310F81B50
:100310008D29F90DF80DF7038629F81308003C081C
:100320000319FF29C40040080319FF29C407031853
:10033000A0297F30C402031CFF290319FF29A42927
:100340008130C4070318FF294408F700F801F901B8
:10035000FA013D08C800C8173E08C7003F08C6009C
:100360001830C400C501461CCD294308FA07031CF8
:10037000BF29F90A031DBF29F80A0319C517420846
:10038000F907031CC629F80A0319C5174108BE005E
:10039000BE173E08F8070318C517C50DF80CF90C71
:1003A000FA0CC80CC70CC60C0310C40BB2290130E0
:1003B000F7070318FF29F81BE429C80DFA0DF90DFA
:1003C000F80DF7030319FF29C81FF529FA0A031DC1
:1003D000F529F90A031DF529F80A031DF529F80C7A
:1003E000F90CFA0CF70A0319FF293D08C50041086A
:1003F000C506C51FFD29F817032AF813032AF701BC
:10040000F801F901FA0108008318092A4430840030
:100410008313F701F801F901FA01C401C501C6010E
:10042000C70143084204410440040319472A20300D
:10043000C8000310BC0DBD0DBE0DBF0DC40DC50D14
:10044000C60DC70D43084702031D302A4208460265
:10045000031D302A41084502031D302A400844028A
:10046000031C412A4008C4024108031C410FC50275
:100470004208031C420FC6024308031C430FC70275
:100480000314F70DF80DF90DFA0DC80B192A4408DD
:100490008000840A45088000840A46088000840A97
:1004A0004708800008000408B4003308B6000319A8
:1004B000722A3208BF003108BE003008BD002F0884
:1004C000BC00C301C2012030C1008230C0008F21B6
:1004D0007A08B2007908B1007808B0007708AF0058
:1004E000B60B592A3208BF003108BE003008BD00E3
:1004F0002F08BC003C08B63CBC00FA013D08C00017
:10050000BD170310BD0CBE0CBF0CFA0CF90CF80C97
:10051000F70CBC0B812AC01F982AF709F809F909C2
:10052000FA09F70A0319F80A0319F90A0319FA0A6A
:100530007A08B2007908B1007808B0007708AF00F7
:10054000B21FAF2AB403B416AF09B009B109B2099A
:10055000AF0A0319B00A0319B10A0319B20A3B30F2
:10056000BB009A30BA00CA30B900B8010A30B600F0
:1005700033080319B40A83142F308400831332081C
:10058000BF003108BE003008BD002F08BC003B088A
:10059000C3003A08C2003908C1003808C00004226C
:1005A0007808F708031DE72A330A36020319E72AF9
:1005B00034080319E92A0F3936020319E12A03180E
:1005C0001D2BB41B1D2B341BE92A2030182B203087
:1005D000B405B41EF82AB4123308031DB403770817
:1005E000B4002D300C1EF22A99003408F700B40133
:1005F00033083602031D072B7708B4002E300C1E7B
:10060000FF2A99003408F7002030B405003030305C
:10061000B41E182BB4123308031DB4037708B400BA
:100620002D300C1E112B99003408F700B401303026
:10063000F70777080C1E1A2B990083103B08BF00A0
:100640003A08BE003908BD003808BC00C301C20129
:10065000C1010A30C00004227A08BB007908BA0040
:100660007808B9007708B800B60BBB2A0800030861
:100670001F398300613083168F0090010F08FF300F
:100680008312A000A015200883168700831220166D
:1006900020088316870002309300283083129400CC
:1006A0008316941314130317871119300313990039
:1006B000A6309800903083129800AE01AD018316E9
:1006C00003170908C039890003131F129F12003055
:1006D000031788008312870188018901831304307E
:1006E0008D0000308F0003132D200030831686000C
:1006F0000A30831203178D0000308F0003132D2062
:10070000831611151119822B04308312AF00FA30B1
:10071000B0008528AF0B872B8316111411188E2B70
:100720009B308312AF009C280330F700F70B962B09
:100730000130F700AE207808A100F701AE2078085C
:10074000A200831611151119A32B83122108A400EE
:100750002208A300123003178D0000308F00031011
:1007600007300313AF00BE20103084002408B0000F
:100770002308AF0017290A300C1EBC2B99000D303E
:100780000C1EC02B99002408B0002308AF00722172
:10079000BF01BE012030BD007530BC007A08C30027
:1007A0007908C2007808C1007708C0008F217A0854
:1007B000A8007908A7007808A6007708A5001930D6
:1007C00003178D0000308F00031008300313AF00B3
:1007D000BE20C93084002808B2002708B1002608CE
:1007E000B0002508AF000130B30053221F300317BB
:1007F0008D0000308F00031406300313AF00BE20BD
:100800002408B0002308AF007221BF01BE014030B0
:10081000BD007630BC007A08C3007908C2007808B1
:10082000C1007708C0008F217A08AC007908AB00BE
:100830007808AA007708A900233003178D0000303C
:100840008F00031008300313AF00BE20C9308400AE
:100850002C08B2002B08B1002A08B0002908AF000C
:100860000130B3005322293003178D0000308F0070
:10087000031406300313AF00BE208316842B6300DD
:04400E00E42FFF3F5D
:00000001FF
;PIC16F886
;CRC=CCFD  CREATED="18-oct.-17 12:15"
