:1000000000308A001A280000213084008313000881
:10001000031917280230F800F701F70B0D28F80B29
:100020000C289730F700F70B1328800B0A288A1149
:100030000A123A2803081F398300713083168F0093
:1000400090010F0803170908C039890003131F1214
:100050009F120030031788008312870188018901ED
:1000600083138316031306148312061C3F28FA30E9
:10007000A100042883168613803083128606031796
:0400800031286300C0
:04400E00E52FFF3F5C
:00000001FF
;PIC16F886
;CRC=71EF  CREATED="26-sep.-17 12:38"
